{
  "_format": "hh-sol-artifact-1",
  "contractName": "NammaNestPayments",
  "sourceName": "contracts/NammaNestPayments.sol",
  "abi": [
    {
      "inputs": [
        {
          "internalType": "uint256",
          "name": "_searchFee",
          "type": "uint256"
        }
      ],
      "stateMutability": "nonpayable",
      "type": "constructor"
    },
    {
      "inputs": [
        {
          "internalType": "string",
          "name": "sessionId",
          "type": "string"
        }
      ],
      "name": "AlreadyPaid",
      "type": "error"
    },
    {
      "inputs": [
        {
          "internalType": "uint256",
          "name": "required",
          "type": "uint256"
        },
        {
          "internalType": "uint256",
          "name": "provided",
          "type": "uint256"
        }
      ],
      "name": "InsufficientPayment",
      "type": "error"
    },
    {
      "inputs": [],
      "name": "InvalidFee",
      "type": "error"
    },
    {
      "inputs": [],
      "name": "NotOwner",
      "type": "error"
    },
    {
      "inputs": [],
      "name": "NothingToClaim",
      "type": "error"
    },
    {
      "inputs": [],
      "name": "TransferFailed",
      "type": "error"
    },
    {
      "inputs": [],
      "name": "ZeroAddress",
      "type": "error"
    },
    {
      "anonymous": false,
      "inputs": [
        {
          "indexed": false,
          "internalType": "uint256",
          "name": "oldFee",
          "type": "uint256"
        },
        {
          "indexed": false,
          "internalType": "uint256",
          "name": "newFee",
          "type": "uint256"
        }
      ],
      "name": "FeeUpdated",
      "type": "event"
    },
    {
      "anonymous": false,
      "inputs": [
        {
          "indexed": true,
          "internalType": "address",
          "name": "oldOwner",
          "type": "address"
        },
        {
          "indexed": true,
          "internalType": "address",
          "name": "newOwner",
          "type": "address"
        }
      ],
      "name": "OwnershipTransferred",
      "type": "event"
    },
    {
      "anonymous": false,
      "inputs": [
        {
          "indexed": true,
          "internalType": "address",
          "name": "payer",
          "type": "address"
        },
        {
          "indexed": false,
          "internalType": "string",
          "name": "sessionId",
          "type": "string"
        },
        {
          "indexed": false,
          "internalType": "uint256",
          "name": "amount",
          "type": "uint256"
        },
        {
          "indexed": false,
          "internalType": "uint256",
          "name": "timestamp",
          "type": "uint256"
        }
      ],
      "name": "PaymentReceived",
      "type": "event"
    },
    {
      "anonymous": false,
      "inputs": [
        {
          "indexed": true,
          "internalType": "address",
          "name": "to",
          "type": "address"
        },
        {
          "indexed": false,
          "internalType": "uint256",
          "name": "amount",
          "type": "uint256"
        },
        {
          "indexed": false,
          "internalType": "uint256",
          "name": "timestamp",
          "type": "uint256"
        }
      ],
      "name": "TokensClaimed",
      "type": "event"
    },
    {
      "inputs": [
        {
          "internalType": "uint256",
          "name": "amount",
          "type": "uint256"
        }
      ],
      "name": "claimAmount",
      "outputs": [],
      "stateMutability": "nonpayable",
      "type": "function"
    },
    {
      "inputs": [],
      "name": "claimTokens",
      "outputs": [],
      "stateMutability": "nonpayable",
      "type": "function"
    },
    {
      "inputs": [],
      "name": "contractBalance",
      "outputs": [
        {
          "internalType": "uint256",
          "name": "",
          "type": "uint256"
        }
      ],
      "stateMutability": "view",
      "type": "function"
    },
    {
      "inputs": [
        {
          "internalType": "string",
          "name": "sessionId",
          "type": "string"
        }
      ],
      "name": "getPayment",
      "outputs": [
        {
          "internalType": "address",
          "name": "payer",
          "type": "address"
        },
        {
          "internalType": "uint256",
          "name": "amount",
          "type": "uint256"
        },
        {
          "internalType": "uint256",
          "name": "timestamp",
          "type": "uint256"
        },
        {
          "internalType": "bool",
          "name": "exists",
          "type": "bool"
        }
      ],
      "stateMutability": "view",
      "type": "function"
    },
    {
      "inputs": [
        {
          "internalType": "string",
          "name": "sessionId",
          "type": "string"
        }
      ],
      "name": "isSessionPaid",
      "outputs": [
        {
          "internalType": "bool",
          "name": "",
          "type": "bool"
        }
      ],
      "stateMutability": "view",
      "type": "function"
    },
    {
      "inputs": [],
      "name": "owner",
      "outputs": [
        {
          "internalType": "address",
          "name": "",
          "type": "address"
        }
      ],
      "stateMutability": "view",
      "type": "function"
    },
    {
      "inputs": [
        {
          "internalType": "string",
          "name": "sessionId",
          "type": "string"
        }
      ],
      "name": "pay",
      "outputs": [],
      "stateMutability": "payable",
      "type": "function"
    },
    {
      "inputs": [],
      "name": "pendingClaim",
      "outputs": [
        {
          "internalType": "uint256",
          "name": "",
          "type": "uint256"
        }
      ],
      "stateMutability": "view",
      "type": "function"
    },
    {
      "inputs": [
        {
          "internalType": "address",
          "name": "",
          "type": "address"
        }
      ],
      "name": "searchCount",
      "outputs": [
        {
          "internalType": "uint256",
          "name": "",
          "type": "uint256"
        }
      ],
      "stateMutability": "view",
      "type": "function"
    },
    {
      "inputs": [],
      "name": "searchFee",
      "outputs": [
        {
          "internalType": "uint256",
          "name": "",
          "type": "uint256"
        }
      ],
      "stateMutability": "view",
      "type": "function"
    },
    {
      "inputs": [
        {
          "internalType": "uint256",
          "name": "_fee",
          "type": "uint256"
        }
      ],
      "name": "setSearchFee",
      "outputs": [],
      "stateMutability": "nonpayable",
      "type": "function"
    },
    {
      "inputs": [],
      "name": "totalClaimed",
      "outputs": [
        {
          "internalType": "uint256",
          "name": "",
          "type": "uint256"
        }
      ],
      "stateMutability": "view",
      "type": "function"
    },
    {
      "inputs": [],
      "name": "totalCollected",
      "outputs": [
        {
          "internalType": "uint256",
          "name": "",
          "type": "uint256"
        }
      ],
      "stateMutability": "view",
      "type": "function"
    },
    {
      "inputs": [
        {
          "internalType": "address",
          "name": "newOwner",
          "type": "address"
        }
      ],
      "name": "transferOwnership",
      "outputs": [],
      "stateMutability": "nonpayable",
      "type": "function"
    },
    {
      "stateMutability": "payable",
      "type": "receive"
    }
  ],
  "bytecode": "0x608060405234801561001057600080fd5b50604051610bb2380380610bb283398101604081905261002f9161008d565b600080546001600160a01b0319163317815560018290556040517f528d9479e9f9889a87a3c30c7f7ba537e5e59c4c85a37733b16e57c62df613029161007f918490918252602082015260400190565b60405180910390a1506100a6565b60006020828403121561009f57600080fd5b5051919050565b610afd806100b56000396000f3fe6080604052600436106100e15760003560e01c8063bd4da9bf1161007f578063e29eb83611610059578063e29eb83614610243578063f2fde38b14610259578063f57a5f9f14610279578063f8fe00881461028f57600080fd5b8063bd4da9bf146101c1578063c69207a3146101e1578063d54ad2a11461022d57600080fd5b806348c54b9d116100bb57806348c54b9d1461014457806352c6794c146101595780638b7afe2e146100ed5780638da5cb5b1461018957600080fd5b806313cf9e8f146100ed57806323b221a01461010f5780632b66d72e1461013157600080fd5b366100e857005b600080fd5b3480156100f957600080fd5b50475b6040519081526020015b60405180910390f35b34801561011b57600080fd5b5061012f61012a36600461093b565b6102bc565b005b61012f61013f366004610954565b6103e9565b34801561015057600080fd5b5061012f6105f8565b34801561016557600080fd5b50610179610174366004610954565b61071c565b6040519015158152602001610106565b34801561019557600080fd5b506000546101a9906001600160a01b031681565b6040516001600160a01b039091168152602001610106565b3480156101cd57600080fd5b5061012f6101dc36600461093b565b61076a565b3480156101ed57600080fd5b506102016101fc366004610954565b6107f7565b604080516001600160a01b03909516855260208501939093529183015215156060820152608001610106565b34801561023957600080fd5b506100fc60035481565b34801561024f57600080fd5b506100fc60025481565b34801561026557600080fd5b5061012f6102743660046109c6565b61088e565b34801561028557600080fd5b506100fc60015481565b34801561029b57600080fd5b506100fc6102aa3660046109c6565b60056020526000908152604090205481565b6000546001600160a01b031633146102e7576040516330cd747160e01b815260040160405180910390fd5b478115806102f457508082115b15610312576040516312d37ee560e31b815260040160405180910390fd5b81600360008282546103249190610a0c565b9091555050600080546040516001600160a01b039091169084908381818185875af1925050503d8060008114610376576040519150601f19603f3d011682016040523d82523d6000602084013e61037b565b606091505b505090508061039d576040516312171d8360e31b815260040160405180910390fd5b600054604080518581524260208201526001600160a01b03909216917f9923b4306c6c030f2bdfbf156517d5983b87e15b96176da122cd4f2effa4ba7b910160405180910390a2505050565b60015434101561041e5760015460405163b99e2ab760e01b815260048101919091523460248201526044015b60405180910390fd5b60008282604051602001610433929190610a1f565b60408051601f1981840301815291815281516020928301206000818152600490935291206003015490915060ff161561048357828260405163a1c16a7560e01b8152600401610415929190610a58565b60408051608081018252338082526001805460208085019182524285870190815260608601848152600089815260048452888120975188546001600160a01b0319166001600160a01b0390911617885593519487019490945551600286015591516003909401805460ff1916941515949094179093559082526005905290812080549161050f83610a74565b9190505550600154600260008282546105289190610a0c565b909155505060015460405133917f8fa6425f4665e251c6dd1d6b6e793823b8b07b4efe70381ec1a158785640393f916105679187918791904290610a8d565b60405180910390a260006001543461057f9190610ab4565b905080156105f257604051600090339083908381818185875af1925050503d80600081146105c9576040519150601f19603f3d011682016040523d82523d6000602084013e6105ce565b606091505b50509050806105f0576040516312171d8360e31b815260040160405180910390fd5b505b50505050565b6000546001600160a01b03163314610623576040516330cd747160e01b815260040160405180910390fd5b476000819003610646576040516312d37ee560e31b815260040160405180910390fd5b80600360008282546106589190610a0c565b9091555050600080546040516001600160a01b039091169083908381818185875af1925050503d80600081146106aa576040519150601f19603f3d011682016040523d82523d6000602084013e6106af565b606091505b50509050806106d1576040516312171d8360e31b815260040160405180910390fd5b600054604080518481524260208201526001600160a01b03909216917f9923b4306c6c030f2bdfbf156517d5983b87e15b96176da122cd4f2effa4ba7b910160405180910390a25050565b6000600460008484604051602001610735929190610a1f565b60408051601f198184030181529181528151602092830120835290820192909252016000206003015460ff1690505b92915050565b6000546001600160a01b03163314610795576040516330cd747160e01b815260040160405180910390fd5b806000036107b6576040516358d620b360e01b815260040160405180910390fd5b60015460408051918252602082018390527f528d9479e9f9889a87a3c30c7f7ba537e5e59c4c85a37733b16e57c62df61302910160405180910390a1600155565b6000806000806000600460008888604051602001610816929190610a1f565b60408051808303601f190181529181528151602092830120835282820193909352908201600020825160808101845281546001600160a01b03168082526001830154938201849052600283015494820185905260039092015460ff1615156060909101819052909a9199509197509095509350505050565b6000546001600160a01b031633146108b9576040516330cd747160e01b815260040160405180910390fd5b6001600160a01b0381166108e05760405163d92e233d60e01b815260040160405180910390fd5b600080546040516001600160a01b03808516939216917f8be0079c531659141344cd1fd0a4f28419497f9722a3daafe3b4186f6b6457e091a3600080546001600160a01b0319166001600160a01b0392909216919091179055565b60006020828403121561094d57600080fd5b5035919050565b6000806020838503121561096757600080fd5b823567ffffffffffffffff8082111561097f57600080fd5b818501915085601f83011261099357600080fd5b8135818111156109a257600080fd5b8660208285010111156109b457600080fd5b60209290920196919550909350505050565b6000602082840312156109d857600080fd5b81356001600160a01b03811681146109ef57600080fd5b9392505050565b634e487b7160e01b600052601160045260246000fd5b80820180821115610764576107646109f6565b8183823760009101908152919050565b81835281816020850137506000828201602090810191909152601f909101601f19169091010190565b602081526000610a6c602083018486610a2f565b949350505050565b600060018201610a8657610a866109f6565b5060010190565b606081526000610aa1606083018688610a2f565b6020830194909452506040015292915050565b81810381811115610764576107646109f656fea2646970667358221220c0c188b3236274e8ebf74322147854ce5740ffa8e8cc4ee9513dba9448f7af4a64736f6c63430008180033",
  "linkReferences": {},
  "deployedLinkReferences": {}
}